{
  "_format": "hh-sol-artifact-1",
  "contractName": "SubscriptionManager",
  "sourceName": "contracts/SubscriptionManager.sol",
  "abi": [
    {
      "inputs": [],
      "stateMutability": "nonpayable",
      "type": "constructor"
    },
    {
      "inputs": [
        {
          "internalType": "address",
          "name": "owner",
          "type": "address"
        }
      ],
      "name": "OwnableInvalidOwner",
      "type": "error"
    },
    {
      "inputs": [
        {
          "internalType": "address",
          "name": "account",
          "type": "address"
        }
      ],
      "name": "OwnableUnauthorizedAccount",
      "type": "error"
    },
    {
      "anonymous": false,
      "inputs": [
        {
          "indexed": true,
          "internalType": "address",
          "name": "previousOwner",
          "type": "address"
        },
        {
          "indexed": true,
          "internalType": "address",
          "name": "newOwner",
          "type": "address"
        }
      ],
      "name": "OwnershipTransferred",
      "type": "event"
    },
    {
      "anonymous": false,
      "inputs": [
        {
          "indexed": true,
          "internalType": "uint256",
          "name": "subscriptionId",
          "type": "uint256"
        },
        {
          "indexed": false,
          "internalType": "uint256",
          "name": "amount",
          "type": "uint256"
        }
      ],
      "name": "PaymentExecuted",
      "type": "event"
    },
    {
      "anonymous": false,
      "inputs": [
        {
          "indexed": true,
          "internalType": "uint256",
          "name": "subscriptionId",
          "type": "uint256"
        }
      ],
      "name": "SubscriptionCancelled",
      "type": "event"
    },
    {
      "anonymous": false,
      "inputs": [
        {
          "indexed": true,
          "internalType": "uint256",
          "name": "subscriptionId",
          "type": "uint256"
        },
        {
          "indexed": true,
          "internalType": "address",
          "name": "subscriber",
          "type": "address"
        },
        {
          "indexed": true,
          "internalType": "address",
          "name": "recipient",
          "type": "address"
        }
      ],
      "name": "SubscriptionCreated",
      "type": "event"
    },
    {
      "inputs": [
        {
          "internalType": "uint256",
          "name": "_subscriptionId",
          "type": "uint256"
        }
      ],
      "name": "cancelSubscription",
      "outputs": [],
      "stateMutability": "nonpayable",
      "type": "function"
    },
    {
      "inputs": [
        {
          "internalType": "address",
          "name": "_token",
          "type": "address"
        },
        {
          "internalType": "uint256",
          "name": "_amount",
          "type": "uint256"
        },
        {
          "internalType": "uint256",
          "name": "_interval",
          "type": "uint256"
        },
        {
          "internalType": "address",
          "name": "_recipient",
          "type": "address"
        }
      ],
      "name": "createSubscription",
      "outputs": [
        {
          "internalType": "uint256",
          "name": "",
          "type": "uint256"
        }
      ],
      "stateMutability": "nonpayable",
      "type": "function"
    },
    {
      "inputs": [
        {
          "internalType": "uint256",
          "name": "_subscriptionId",
          "type": "uint256"
        }
      ],
      "name": "executeSubscriptionPayment",
      "outputs": [],
      "stateMutability": "nonpayable",
      "type": "function"
    },
    {
      "inputs": [],
      "name": "getActiveSubscriptions",
      "outputs": [
        {
          "internalType": "uint256[]",
          "name": "",
          "type": "uint256[]"
        }
      ],
      "stateMutability": "view",
      "type": "function"
    },
    {
      "inputs": [
        {
          "internalType": "uint256",
          "name": "_subscriptionId",
          "type": "uint256"
        }
      ],
      "name": "getSubscription",
      "outputs": [
        {
          "components": [
            {
              "internalType": "address",
              "name": "subscriber",
              "type": "address"
            },
            {
              "internalType": "address",
              "name": "token",
              "type": "address"
            },
            {
              "internalType": "uint256",
              "name": "amount",
              "type": "uint256"
            },
            {
              "internalType": "uint256",
              "name": "interval",
              "type": "uint256"
            },
            {
              "internalType": "address",
              "name": "recipient",
              "type": "address"
            },
            {
              "internalType": "uint256",
              "name": "nextPayment",
              "type": "uint256"
            },
            {
              "internalType": "bool",
              "name": "active",
              "type": "bool"
            }
          ],
          "internalType": "struct SubscriptionManager.Subscription",
          "name": "",
          "type": "tuple"
        }
      ],
      "stateMutability": "view",
      "type": "function"
    },
    {
      "inputs": [],
      "name": "owner",
      "outputs": [
        {
          "internalType": "address",
          "name": "",
          "type": "address"
        }
      ],
      "stateMutability": "view",
      "type": "function"
    },
    {
      "inputs": [],
      "name": "renounceOwnership",
      "outputs": [],
      "stateMutability": "nonpayable",
      "type": "function"
    },
    {
      "inputs": [],
      "name": "subscriptionCount",
      "outputs": [
        {
          "internalType": "uint256",
          "name": "",
          "type": "uint256"
        }
      ],
      "stateMutability": "view",
      "type": "function"
    },
    {
      "inputs": [
        {
          "internalType": "uint256",
          "name": "",
          "type": "uint256"
        }
      ],
      "name": "subscriptions",
      "outputs": [
        {
          "internalType": "address",
          "name": "subscriber",
          "type": "address"
        },
        {
          "internalType": "address",
          "name": "token",
          "type": "address"
        },
        {
          "internalType": "uint256",
          "name": "amount",
          "type": "uint256"
        },
        {
          "internalType": "uint256",
          "name": "interval",
          "type": "uint256"
        },
        {
          "internalType": "address",
          "name": "recipient",
          "type": "address"
        },
        {
          "internalType": "uint256",
          "name": "nextPayment",
          "type": "uint256"
        },
        {
          "internalType": "bool",
          "name": "active",
          "type": "bool"
        }
      ],
      "stateMutability": "view",
      "type": "function"
    },
    {
      "inputs": [
        {
          "internalType": "address",
          "name": "newOwner",
          "type": "address"
        }
      ],
      "name": "transferOwnership",
      "outputs": [],
      "stateMutability": "nonpayable",
      "type": "function"
    }
  ],
  "bytecode": "0x60806040523480156200001157600080fd5b5033600073ffffffffffffffffffffffffffffffffffffffff168173ffffffffffffffffffffffffffffffffffffffff1603620000885760006040517f1e4fbdf70000000000000000000000000000000000000000000000000000000081526004016200007f9190620001a9565b60405180910390fd5b6200009981620000a060201b60201c565b50620001c6565b60008060009054906101000a900473ffffffffffffffffffffffffffffffffffffffff169050816000806101000a81548173ffffffffffffffffffffffffffffffffffffffff021916908373ffffffffffffffffffffffffffffffffffffffff1602179055508173ffffffffffffffffffffffffffffffffffffffff168173ffffffffffffffffffffffffffffffffffffffff167f8be0079c531659141344cd1fd0a4f28419497f9722a3daafe3b4186f6b6457e060405160405180910390a35050565b600073ffffffffffffffffffffffffffffffffffffffff82169050919050565b6000620001918262000164565b9050919050565b620001a38162000184565b82525050565b6000602082019050620001c0600083018462000198565b92915050565b6118c280620001d66000396000f3fe608060405234801561001057600080fd5b506004361061009e5760003560e01c8063715018a611610066578063715018a61461014d578063871590ce146101575780638da5cb5b14610187578063dc311dd3146101a5578063f2fde38b146101d55761009e565b8063173b6d90146100a357806321235083146100c15780632d5bbf60146100dd5780634102b1fb146101135780635bdc42691461012f575b600080fd5b6100ab6101f1565b6040516100b89190610fbc565b60405180910390f35b6100db60048036038101906100d69190611008565b6101f7565b005b6100f760048036038101906100f29190611008565b61037c565b60405161010a9796959493929190611091565b60405180910390f35b61012d60048036038101906101289190611008565b61042b565b005b610137610736565b60405161014491906111be565b60405180910390f35b61015561080f565b005b610171600480360381019061016c919061120c565b610823565b60405161017e9190610fbc565b60405180910390f35b61018f610bb8565b60405161019c9190611273565b60405180910390f35b6101bf60048036038101906101ba9190611008565b610be1565b6040516101cc919061133a565b60405180910390f35b6101ef60048036038101906101ea9190611355565b610d49565b005b60025481565b60006001600083815260200190815260200160002090508060060160009054906101000a900460ff1661025f576040517f08c379a0000000000000000000000000000000000000000000000000000000008152600401610256906113df565b60405180910390fd5b3373ffffffffffffffffffffffffffffffffffffffff168160000160009054906101000a900473ffffffffffffffffffffffffffffffffffffffff1673ffffffffffffffffffffffffffffffffffffffff1614806102ef57503373ffffffffffffffffffffffffffffffffffffffff166102d7610bb8565b73ffffffffffffffffffffffffffffffffffffffff16145b61032e576040517f08c379a00000000000000000000000000000000000000000000000000000000081526004016103259061144b565b60405180910390fd5b60008160060160006101000a81548160ff021916908315150217905550817fbd2bcea75d16a85f005cd83447e0de57341bf926fe7419e6d553663e91ab4da760405160405180910390a25050565b60016020528060005260406000206000915090508060000160009054906101000a900473ffffffffffffffffffffffffffffffffffffffff16908060010160009054906101000a900473ffffffffffffffffffffffffffffffffffffffff16908060020154908060030154908060040160009054906101000a900473ffffffffffffffffffffffffffffffffffffffff16908060050154908060060160009054906101000a900460ff16905087565b60006001600083815260200190815260200160002090508060060160009054906101000a900460ff16610493576040517f08c379a000000000000000000000000000000000000000000000000000000000815260040161048a906113df565b60405180910390fd5b3373ffffffffffffffffffffffffffffffffffffffff168160000160009054906101000a900473ffffffffffffffffffffffffffffffffffffffff1673ffffffffffffffffffffffffffffffffffffffff16148061052357503373ffffffffffffffffffffffffffffffffffffffff1661050b610bb8565b73ffffffffffffffffffffffffffffffffffffffff16145b610562576040517f08c379a00000000000000000000000000000000000000000000000000000000081526004016105599061144b565b60405180910390fd5b80600501544210156105a9576040517f08c379a00000000000000000000000000000000000000000000000000000000081526004016105a0906114b7565b60405180910390fd5b60008160010160009054906101000a900473ffffffffffffffffffffffffffffffffffffffff1690508073ffffffffffffffffffffffffffffffffffffffff166323b872dd8360000160009054906101000a900473ffffffffffffffffffffffffffffffffffffffff168460040160009054906101000a900473ffffffffffffffffffffffffffffffffffffffff1685600201546040518463ffffffff1660e01b815260040161065b939291906114d7565b6020604051808303816000875af115801561067a573d6000803e3d6000fd5b505050506040513d601f19601f8201168201806040525081019061069e919061153a565b6106dd576040517f08c379a00000000000000000000000000000000000000000000000000000000081526004016106d4906115b3565b60405180910390fd5b8160030154426106ed9190611602565b8260050181905550827f5838e0e9882ba51d885397e944dc4e853ca3ac94353d8c3e7c38c7e1fcf85f5e83600201546040516107299190610fbc565b60405180910390a2505050565b6060600060025467ffffffffffffffff81111561075657610755611636565b5b6040519080825280602002602001820160405280156107845781602001602082028036833780820191505090505b509050600080600190505b6002548111610803576001600082815260200190815260200160002060060160009054906101000a900460ff16156107f057808383815181106107d5576107d4611665565b5b60200260200101818152505081806107ec90611694565b9250505b80806107fb90611694565b91505061078f565b50808252819250505090565b610817610dcf565b6108216000610e56565b565b60008073ffffffffffffffffffffffffffffffffffffffff168573ffffffffffffffffffffffffffffffffffffffff1603610893576040517f08c379a000000000000000000000000000000000000000000000000000000000815260040161088a90611728565b60405180910390fd5b600084116108d6576040517f08c379a00000000000000000000000000000000000000000000000000000000081526004016108cd90611794565b60405180910390fd5b60008311610919576040517f08c379a000000000000000000000000000000000000000000000000000000000815260040161091090611800565b60405180910390fd5b600073ffffffffffffffffffffffffffffffffffffffff168273ffffffffffffffffffffffffffffffffffffffff1603610988576040517f08c379a000000000000000000000000000000000000000000000000000000000815260040161097f9061186c565b60405180910390fd5b6002600081548092919061099b90611694565b91905055506040518060e001604052803373ffffffffffffffffffffffffffffffffffffffff1681526020018673ffffffffffffffffffffffffffffffffffffffff1681526020018581526020018481526020018373ffffffffffffffffffffffffffffffffffffffff1681526020018442610a179190611602565b81526020016001151581525060016000600254815260200190815260200160002060008201518160000160006101000a81548173ffffffffffffffffffffffffffffffffffffffff021916908373ffffffffffffffffffffffffffffffffffffffff16021790555060208201518160010160006101000a81548173ffffffffffffffffffffffffffffffffffffffff021916908373ffffffffffffffffffffffffffffffffffffffff160217905550604082015181600201556060820151816003015560808201518160040160006101000a81548173ffffffffffffffffffffffffffffffffffffffff021916908373ffffffffffffffffffffffffffffffffffffffff16021790555060a0820151816005015560c08201518160060160006101000a81548160ff0219169083151502179055509050508173ffffffffffffffffffffffffffffffffffffffff163373ffffffffffffffffffffffffffffffffffffffff166002547fa140d05947f5ffa84ec698092f79c8dd3a48e405c9e9c7b84903fa177110b7c060405160405180910390a46002549050949350505050565b60008060009054906101000a900473ffffffffffffffffffffffffffffffffffffffff16905090565b610be9610f22565b600160008381526020019081526020016000206040518060e00160405290816000820160009054906101000a900473ffffffffffffffffffffffffffffffffffffffff1673ffffffffffffffffffffffffffffffffffffffff1673ffffffffffffffffffffffffffffffffffffffff1681526020016001820160009054906101000a900473ffffffffffffffffffffffffffffffffffffffff1673ffffffffffffffffffffffffffffffffffffffff1673ffffffffffffffffffffffffffffffffffffffff16815260200160028201548152602001600382015481526020016004820160009054906101000a900473ffffffffffffffffffffffffffffffffffffffff1673ffffffffffffffffffffffffffffffffffffffff1673ffffffffffffffffffffffffffffffffffffffff168152602001600582015481526020016006820160009054906101000a900460ff1615151515815250509050919050565b610d51610dcf565b600073ffffffffffffffffffffffffffffffffffffffff168173ffffffffffffffffffffffffffffffffffffffff1603610dc35760006040517f1e4fbdf7000000000000000000000000000000000000000000000000000000008152600401610dba9190611273565b60405180910390fd5b610dcc81610e56565b50565b610dd7610f1a565b73ffffffffffffffffffffffffffffffffffffffff16610df5610bb8565b73ffffffffffffffffffffffffffffffffffffffff1614610e5457610e18610f1a565b6040517f118cdaa7000000000000000000000000000000000000000000000000000000008152600401610e4b9190611273565b60405180910390fd5b565b60008060009054906101000a900473ffffffffffffffffffffffffffffffffffffffff169050816000806101000a81548173ffffffffffffffffffffffffffffffffffffffff021916908373ffffffffffffffffffffffffffffffffffffffff1602179055508173ffffffffffffffffffffffffffffffffffffffff168173ffffffffffffffffffffffffffffffffffffffff167f8be0079c531659141344cd1fd0a4f28419497f9722a3daafe3b4186f6b6457e060405160405180910390a35050565b600033905090565b6040518060e00160405280600073ffffffffffffffffffffffffffffffffffffffff168152602001600073ffffffffffffffffffffffffffffffffffffffff1681526020016000815260200160008152602001600073ffffffffffffffffffffffffffffffffffffffff168152602001600081526020016000151581525090565b6000819050919050565b610fb681610fa3565b82525050565b6000602082019050610fd16000830184610fad565b92915050565b600080fd5b610fe581610fa3565b8114610ff057600080fd5b50565b60008135905061100281610fdc565b92915050565b60006020828403121561101e5761101d610fd7565b5b600061102c84828501610ff3565b91505092915050565b600073ffffffffffffffffffffffffffffffffffffffff82169050919050565b600061106082611035565b9050919050565b61107081611055565b82525050565b60008115159050919050565b61108b81611076565b82525050565b600060e0820190506110a6600083018a611067565b6110b36020830189611067565b6110c06040830188610fad565b6110cd6060830187610fad565b6110da6080830186611067565b6110e760a0830185610fad565b6110f460c0830184611082565b98975050505050505050565b600081519050919050565b600082825260208201905092915050565b6000819050602082019050919050565b61113581610fa3565b82525050565b6000611147838361112c565b60208301905092915050565b6000602082019050919050565b600061116b82611100565b611175818561110b565b93506111808361111c565b8060005b838110156111b1578151611198888261113b565b97506111a383611153565b925050600181019050611184565b5085935050505092915050565b600060208201905081810360008301526111d88184611160565b905092915050565b6111e981611055565b81146111f457600080fd5b50565b600081359050611206816111e0565b92915050565b6000806000806080858703121561122657611225610fd7565b5b6000611234878288016111f7565b945050602061124587828801610ff3565b935050604061125687828801610ff3565b9250506060611267878288016111f7565b91505092959194509250565b60006020820190506112886000830184611067565b92915050565b61129781611055565b82525050565b6112a681611076565b82525050565b60e0820160008201516112c2600085018261128e565b5060208201516112d5602085018261128e565b5060408201516112e8604085018261112c565b5060608201516112fb606085018261112c565b50608082015161130e608085018261128e565b5060a082015161132160a085018261112c565b5060c082015161133460c085018261129d565b50505050565b600060e08201905061134f60008301846112ac565b92915050565b60006020828403121561136b5761136a610fd7565b5b6000611379848285016111f7565b91505092915050565b600082825260208201905092915050565b7f537562736372697074696f6e206973206e6f7420616374697665000000000000600082015250565b60006113c9601a83611382565b91506113d482611393565b602082019050919050565b600060208201905081810360008301526113f8816113bc565b9050919050565b7f4e6f7420617574686f72697a6564000000000000000000000000000000000000600082015250565b6000611435600e83611382565b9150611440826113ff565b602082019050919050565b6000602082019050818103600083015261146481611428565b9050919050565b7f5061796d656e74206e6f74206475652079657400000000000000000000000000600082015250565b60006114a1601383611382565b91506114ac8261146b565b602082019050919050565b600060208201905081810360008301526114d081611494565b9050919050565b60006060820190506114ec6000830186611067565b6114f96020830185611067565b6115066040830184610fad565b949350505050565b61151781611076565b811461152257600080fd5b50565b6000815190506115348161150e565b92915050565b6000602082840312156115505761154f610fd7565b5b600061155e84828501611525565b91505092915050565b7f5472616e73666572206661696c65640000000000000000000000000000000000600082015250565b600061159d600f83611382565b91506115a882611567565b602082019050919050565b600060208201905081810360008301526115cc81611590565b9050919050565b7f4e487b7100000000000000000000000000000000000000000000000000000000600052601160045260246000fd5b600061160d82610fa3565b915061161883610fa3565b92508282019050808211156116305761162f6115d3565b5b92915050565b7f4e487b7100000000000000000000000000000000000000000000000000000000600052604160045260246000fd5b7f4e487b7100000000000000000000000000000000000000000000000000000000600052603260045260246000fd5b600061169f82610fa3565b91507fffffffffffffffffffffffffffffffffffffffffffffffffffffffffffffffff82036116d1576116d06115d3565b5b600182019050919050565b7f496e76616c696420746f6b656e20616464726573730000000000000000000000600082015250565b6000611712601583611382565b915061171d826116dc565b602082019050919050565b6000602082019050818103600083015261174181611705565b9050919050565b7f416d6f756e74206d7573742062652067726561746572207468616e2030000000600082015250565b600061177e601d83611382565b915061178982611748565b602082019050919050565b600060208201905081810360008301526117ad81611771565b9050919050565b7f496e74657276616c206d7573742062652067726561746572207468616e203000600082015250565b60006117ea601f83611382565b91506117f5826117b4565b602082019050919050565b60006020820190508181036000830152611819816117dd565b9050919050565b7f496e76616c696420726563697069656e74206164647265737300000000000000600082015250565b6000611856601983611382565b915061186182611820565b602082019050919050565b6000602082019050818103600083015261188581611849565b905091905056fea2646970667358221220e89135700cf9f0be4a952da1861798a0d3308b9d874247dca35a33945873e3ee64736f6c63430008180033",
  "linkReferences": {},
  "deployedLinkReferences": {}
}